:020000040000FA
:10000000000002283430AE000130AF008030000024
:100010000000B1200000000083120000BD002F0886
:10002000BC003630BE000130BF00831200003C0827
:10003000C0003D08C100FF30BC07031CBD034108E0
:10004000400403199A2804303E07C000C101C10DC5
:100050003F08C1074008AE004108AF0080300000F3
:100060000000B1200000000083120000C3002F0830
:10007000C2003E08AE003F08AF0080300000000024
:10008000B1200000000083120000C500C1002F084D
:10009000C000C40002303E07C000C101C10D3F08CE
:1000A000C1074008AE004108AF00803000000000EA
:1000B000B1200000000083120000C100C7002F081B
:1000C000C600C000831200004208C6004308C700F3
:1000D000FF30C207031CC3034708460403199328D3
:1000E0004408AE004508AF008030000000009E20AC
:1000F0000000000083120000C600400883120313B2
:10010000840083138312000041188317460883126A
:100110000313800083120000C40A0319C50AC00A31
:100120000319C10A6228063083120000BE070318B3
:10013000BF0A152800000000D2280800003A031961
:10014000A528803A0319AC2800342E0884008313B4
:100150002F188317000808002F088A002E08820035
:100160000800003A0319B928803A0319C328AF01DF
:1001700000342E08840083132F1883170008AF0063
:10018000840A0008080000000000AC20AD00AE0F9B
:10019000AF03AF0A00000000AC20AC002D08AF0098
:1001A0002C0808002521FA30AF000030FE20B001F5
:1001B000B1013108803E803E031DE0280630300248
:1001C0000318D7288312851AF9283008483EB20050
:1001D0000030B30031080318310FB3073208840030
:1001E00083133318831700088500FA30AF000030FE
:1001F000FE20B00A0319B10AD9280800B5002F085B
:10020000B400B601B70135083702031D09293408C7
:10021000360203182429FB30B8000430B900FF303F
:100220003807BA00FF30BB0039080318390FBB0785
:100230003A08B8003B08B9003B083A04031D0F29EF
:10024000B60A0319B70A0329080083129F0183160F
:100250009F01073083129900831699012030850091
:100260002030831285000800023400344F340134FA
:100270004834003406340034553401344E340034EC
:10028000013400348312851A4E29FA30AF00003051
:10029000FE208312851A4E294D088500080001347E
:0C02A000023403340634073416340034F2
:00000001FF
